:100000000C9472000C948B000C948B000C948B005D
:100010000C948B000C948B000C948B000C948B0034
:100020000C948B000C948B000C948B000C948B0024
:100030000C948B000C948B000C948B000C948B0014
:100040000C948B000C948B000C948B000C948B0004
:100050000C948B000C948B000C948B000C948B00F4
:100060000C948B000C948B000C948B000C948B00E4
:100070000C948B000C948B000C948B000C948B00D4
:100080000C948B000C948B000C948B000C948B00C4
:100090000C948B000C948B000C948B000C948B00B4
:1000A0000C948B000C948B000C948B000C948B00A4
:1000B0000C948B000C948B000C948B000C948B0094
:1000C0000C948B000C948B000C948B000C948B0084
:1000D0000C948B000C948B000C948B000C948B0074
:1000E0000C948B0011241FBECFEFD1E2DEBFCDBF39
:1000F00000E00CBF12E0A0E0B2E0E6E8F1E000E0D2
:100100000BBF02C007900D92A031B107D9F70E9432
:10011000B4000C94C1000C94000089E190E090932D
:10012000C5008093C40088E18093C1008CE0809377
:10013000C20008959091C00095FFFCCF8093C60047
:1001400008958091C00087FFFCCF8091C60008957C
:10015000CF93DF93EC018991882319F00E949A00D4
:10016000FACFDF91CF9108950E948D0080E092E058
:100170000E94A8008FE39CE90197F1F700C00000FE
:06018000F5CFF894FFCF5B
:10018600666579797979797979797979790A000061
:00000001FF
