:100000000C9472000C9486000C9486000C9486006C
:100010000C9486000C9486000C9486000C94860048
:100020000C9486000C9486000C9486000C94860038
:100030000C9486000C9486000C9486000C94860028
:100040000C9486000C9488000C9486000C94860016
:100050000C9486000C9486000C9486000C94860008
:100060000C9486000C9486000C9486000C948600F8
:100070000C9486000C9486000C9486000C948600E8
:100080000C9486000C9486000C9486000C948600D8
:100090000C9486000C9486000C9486000C948600C8
:1000A0000C9486000C9486000C9486000C948600B8
:1000B0000C9486000C9486000C9486000C948600A8
:1000C0000C9486000C9486000C9486000C94860098
:1000D0000C9486000C9486000C9486000C94860088
:1000E0000C94860011241FBECFEFD1E2DEBFCDBF3E
:1000F00000E00CBF22E0A0E0B2E001C01D92A13000
:10010000B207E1F70E94FC000C9425010C9400005A
:100110001F920F920FB60F9211248F93109200022C
:100120001092810085B1805885B98F910F900FBED4
:100130000F901F90189589E190E09093C5008093EF
:10014000C40088E18093C10086E08093C2000895D6
:1001500089E190E09093CD008093CC0088E180937A
:10016000C90086E08093CA0008959091C80095FF69
:10017000FCCF8093CE0008958091C80087FFFCCF0C
:100180008091CE000895CF93DF93EC01899188236D
:1001900019F00E94B500FACFDF91CF9108959091A8
:1001A000C00095FFFCCF8093C60008958091C000E9
:1001B00087FFFCCF8091C6000895CF93DF93EC01B9
:1001C0008991882319F00E94CF00FACFDF91CF9157
:1001D000089588EE9DEF9093890080938800EFE664
:1001E000F0E0808182608083089581E080938100C7
:1001F00008951092810008950E949B000E94A8001B
:1002000080E884B9109200020E94E9007894C1E06D
:100210000E94D600109281001092850010928400F6
:10022000C093810090910002913021F0923051F002
:100230009111EECF0E94B500809100028F5F8093F4
:0E0240000002E6CF0E94B500E3CFF894FFCF96
:00000001FF
